:020000040000FA
:060000000A128A11122809
:10000800FE00030E83120313C3000408C4000A0889
:10001800C5007F08C6000A128A11492C0A128A11E3
:100028001528FC01FD018313203084003B300A129F
:100038008A113A260A128A1183010A128A11AA2CF5
:100048002428FF0000308A007F0882072A280A1225
:100058008A11612E0A128A11552E0A128A114F2E00
:100068000A128A112F2E0A128A11CB2DA0282D03CD
:10007800031D3F28402841280515F730FF007F0859
:100088008505EF30FF007F088505DF30FF007F081A
:1000980085052C080A128A116F220A128A11B828BB
:1000A8002D03031D582859285A288515FB30FF00B1
:1000B8007F088505EF30FF007F088505DF30FF00EA
:1000C8007F08850588172B080A128A116F220A12E1
:1000D8008A11B8287C03031D722873287428051612
:1000E800FB30FF007F088505F730FF007F08850596
:1000F800DF30FF007F0885052A080A128A116F225F
:100108000A128A11B8287C03031D8B288C288D2895
:100118008516FB30FF007F088505F730FF007F0854
:100128008505EF30FF007F08850529080A128A1126
:100138006F220A128A11B828831203132E08F300BB
:10014800F4017408003A0319AA28B8287308003A79
:1001580003193B28013A03195428033A03196E2856
:10016800013A03198728B828831203132E08013E81
:100178000339FF007F08AE0008000A128A114725DC
:100188000A128A11D3280A128A117A240A128A11A9
:10019800E5280A128A1113240A128A11E528831203
:1001A80003133108F800F9017908003A0319DD282A
:1001B800E5287808013A0319C728033A0319CD2816
:1001C800E5280A30F0000030F100831203132608F6
:1001D800F800F9017808F2007908F3000A128A1188
:1001E80040210A128A117008FF007F088312031346
:1001F800AC000A30F0000030F1002608F800F901E0
:100208007808F2007908F3000A128A11CC220A123F
:100218008A117008FF007F0883120313AB000A30AD
:10022800F0000030F1002508F800F9017808F20024
:100238007908F3000A128A1140210A128A117008FB
:10024800FF007F0883120313AA000A30F000003071
:10025800F1002508F800F9017808F2007908F300A0
:100268000A128A11CC220A128A117008FF007F082C
:1002780083120313A9000800F501F11F4429452939
:100288004C29F009F109F00A0319F10AF501F50AF8
:10029800F31F4F2950295929F209F309F20A0319C2
:1002A800F30A0130FF007F08F506F601F701700830
:1002B80071040319602961299829F401F40A6F2946
:1002C80001300310F00DF10DFF3E031D65290130CB
:1002D800FF007F08F407F11F722973296429013090
:1002E8000310F60DF70DFF3E031D74297108730204
:1002F800031D802970087202031C832984298B2915
:100308007008F2027108031CF303F302761401303B
:100318000310F10CF00CFF3E031D8C290130F40290
:10032800031D972998297329750803199C299D2964
:10033800A229F609F709F60A0319F70A7708F1005E
:100348007608F000080083120313C2010330FF008F
:100358007F08F00042080A128A11E1250A128A1160
:10036800013E84000A128A1100260A128A11831299
:100378000313BC000A128A1100260A128A11BD0052
:100388003C08BE003D08BF00C001C1014108F6009D
:100398004008F5003F08F4003E08F3002308FA007F
:1003A8002208F9002108F8002008F7000A128A112B
:1003B80025230A128A117608750474047304031D30
:1003C800E629E729FF290330FF007F08F0008312A0
:1003D800031342080A128A11E1250A128A11033E00
:1003E80084000A128A1100260A128A110A128A1136
:1003F80025200A128A110130FF007F088312031397
:10040800C20703304202031C0A2A0B2AAA29080041
:10041800831203132808F1002708F0000530F200C2
:100428000030F3000A128A1122250A128A1177086D
:100438007106031D212A76087006031D242A252A21
:10044800662A02307806031D2A2A2B2A432A7C03AF
:10045800031D2F2A302A3C2AFC01EF30FF007F08B9
:10046800831203138505DF30FF007F088505432AC3
:100478007C08031D402A412A432AFC01FC0A780310
:10048800031D472A482A602A831203132D03031DDC
:100498004E2A4F2A592AAD01FB30FF007F088505F7
:1004A800F730FF007F088505602A2D08031D5D2AA7
:1004B8005E2A602AAD01AD0A013083120313A7003A
:1004C8000030A800013083120313A7070318A80AF5
:1004D8000030A8070800F200A32A3F308312031354
:1004E8008800CB2A0630831203138800CB2A5B309E
:1004F800831203138800CB2A4F308312031388001A
:10050800CB2A6630831203138800CB2A6D308312FE
:1005180003138800CB2A7D30831203138800CB2A6B
:100528000730831203138800CB2A7F30831203130A
:100538008800CB2A6F30831203138800CB2A7208F5
:10054800F000F1017108003A0319AB2ACB2A7008B0
:10055800003A0319712A013A0319762A033A031952
:100568007B2A013A0319802A073A0319852A013A96
:1005780003198A2A033A03198F2A013A0319942A7C
:100588000F3A0319992A013A03199E2ACB2A08001F
:10059800F501F31FD02AD12AD82AF209F309F20A61
:1005A8000319F30AF501F50AF11FDB2ADC2AE12A0F
:1005B800F009F109F00A0319F10A70087104031926
:1005C800E62AE72A162BF401F40AF52A013003106B
:1005D800F00DF10DFF3E031DEB2A0130FF007F08EF
:1005E800F407F11FF82AF92AEA2A71087302031D91
:1005F800FF2A70087202031C022B032B092B7008B8
:10060800F2027108031CF303F30201300310F10C2A
:10061800F00CFF3E031D0A2B0130F402031D152BBD
:10062800162BF92A750803191A2B1B2B202BF209F4
:10063800F309F20A0319F30A7308F1007208F000CB
:100648000800760875047404730403192C2B2D2BE9
:10065800722B83120313BB01BB0A3F2B0130FB0033
:100668000310F30DF40DF50DF60DFB0B342B0130D3
:10067800FF007F08BB07F61F422B432B322B76085F
:100688007A02031D512B75087902031D512B74083A
:100698007802031D512B73087702031C542B552B2A
:1006A800632B7308F7027408031C740FF8027508AB
:1006B800031C750FF9027608031C760FFA02013045
:1006C8000310F60CF50CF40CF30CFF3E031D642B21
:1006D8000130BB02031D712B722B432B7A08F600E5
:1006E8007908F5007808F4007708F3000800831209
:1006F800031306080439FF002F08353E84007F08DD
:100708008313800006080239FF002F08323E840058
:100718007F0880000330F0000030F1002F08013E10
:10072800F200003003180130F3000A128A11CC22BB
:100738000A128A117008FF007F0883120313AF00A2
:100748003508031DA82BA92BBA2B3608031DAD2B82
:10075800AE2BBA2B3708031DB22BB32BBA2B7D1443
:10076800B501B50AB601B60AB701B70A3208031DC2
:10077800BE2BBF2BD02B3308031DC32BC42BD02B70
:100788003408031DC82BC92BD02BFD14B201B20AA3
:10079800B301B30AB401B40A0800F82B0A128A118B
:1007A80042260A128A110D2CF430F6000130F700A7
:1007B800F801F80A0A128A110C220A128A11FC019D
:1007C800FC0A0D2CF430F6000130F7000230FF006F
:1007D8007F08F8000A128A110C220A128A11831261
:1007E8000313AD01AD0A0D2C831203133108F90070
:1007F800FA017A08003A0319022C0D2C7908003AFC
:100808000319D22B013A0319D82B033A0319E62B03
:100818000D2C0A128A113A200A128A1108007D1C2E
:10082800162C172C2F2CFD181A2C1B2C2F2C3B3078
:10083800831203132506031D222C232C292C013097
:10084800FF007F08A607A5012D2C0130FF007F08B7
:10085800A5077D10482CFD1C322C332C482C7D1804
:10086800362C372C482C831203132508031D3D2CE6
:100878003E2C452C0130A6023B30FF007F08A50026
:10088800472C0130A502FD1008000B1D4C2C4D2CE7
:100898005C2C653081000B110A3084000A128A1121
:1008A80000260A128A110A128A1125200A128A11B0
:1008B8008B1C5F2C602C6D2C8B100B3084000A1263
:1008C8008A1100260A128A110A128A1125200A1290
:1008D8008A11831203134608FF0045088A0044085A
:1008E8008400430E8300FE0E7E0E09007D1C7D2CC5
:1008F8007E2C922CFD18812C822C922C173083127E
:1009080003132606031D892C8A2C8C2CA601902CF7
:100918000130FF007F08A6077D10A92CFD1C952C2F
:10092800962CA92C7D18992C9A2CA92C8312031388
:100938002608031DA02CA12CA62C1730FF007F0829
:10094800A600A82C0130A602FD1008000A128A1180
:100958006B250A128A110A128A11B0250A128A1105
:100968000A128A1149260A128A110A128A115B266A
:100978000A128A110A128A11D6240A128A110A1234
:100988008A1121260A128A110A128A1111260A12BC
:100998008A110A128A115F260A128A11D22C0A12A7
:1009A8008A111228013083120313C7000030C800CF
:1009B8000330C9000030CA0035300A128A118E256A
:1009C8000A128A11013083120313C7000030C800CD
:1009D8000330C9000030CA0032300A128A118E254D
:1009E8000A128A118316031301170B168B100800BD
:1009F8007D1DFF2C002D212D0B2DB101B10A202DBD
:100A08000230FF007F08B100202DB101202D831294
:100A180003133108F000F1017108003A0319152D8C
:100A2800202D7008003A0319012D013A0319042DED
:100A3800033A0319092D202D7D110800F401F50151
:100A4800701C272D282D2E2D7208F4070318F50A7F
:100A58007308F50701300310F20DF30DFF3E031D77
:100A68002F2D01300310F10CF00CFF3E031D362D25
:100A780070087104031D412D422D242D7508F100C5
:100A88007408F00008000130FF007F088312031388
:100A9800A4073C302406031D522D532D582D013038
:100AA800FF007F08A507A4013C302506031D5D2D26
:100AB8005E2D632D0130FF007F08A607A5011830C1
:100AC8002606031D682D692D6A2DA60108008316C8
:100AD8000313061586140614FB30FF007F088505EE
:100AE800F730FF007F088505EF30FF007F08850598
:100AF800DF30FF007F0885057F30FF007F0888050D
:100B08008801EF30FF007F088605F730FF007F0877
:100B18008605080083120313CC004C08FF007F08E9
:100B2800CB00A12D4708FF004B0884007F088313E2
:100B380080000130FF007F08CB070130C902003078
:100B4800031CCA03CA02490A031DAE2D4A0A031D23
:100B5800AE2DAF2D962D0800FC01FC0A831203135D
:100B6800AD01AD0AFB30FF007F088505F730FF00B7
:100B78007F088505EF30FF007F088505DF30FF001F
:100B88007F0885057F30FF007F0888050800013051
:100B980083120313A007003003180130A1070030A7
:100BA80003180130A207003003180130A3070A1206
:100BB8008A11A7210A128A110800F200F101721C99
:100BC800E62DE72DEB2D7008FF007F08F1070310D5
:100BD800F00D0310F20C7208031DF32DF42DE32D14
:040BE8007108080088
:100C000006308A000408840A820700340534003460
:100C10000734143400340A34E834033404340D3413
:100C20000134003083120313C700C8000330C90029
:100C30000030CA0038300A128A118E250A128A1131
:100C40000800831603138112811101108110011510
:100C500064308312031381008B170B1708000A12EC
:100C60008A117B230A128A110A128A11FC240A12A1
:100C70008A11080064008001840A04060319003404
:100C800004063B2EFC01FC0A83120313AD01AD0ADE
:100C9000080083120313A401A501A60108000A128B
:100CA0008A11D1230A128A1108000A128A11C1205E
:100CB0000A128A11080083120313B10108008B166F
:060CC00008007D1508008C
:02400E003A3F37
:00000001FF
