:020000040000FA
:060000000A128A11122809
:10000800FE00030E83120313B8000408B9000A089F
:10001800BA007F08BB000A128A116D290A128A11D8
:10002800152883134030840054300A128A1186221E
:100038000A128A1183010A128A11132AFF0000305A
:100048008A007F0882072728282829280A128A1167
:100058009C2A0A128A11952A0A128A118E2AFF00EE
:1000680000308A007F08820738280A128A11A32ADA
:100078000A128A11F52983120313B7010030F6001A
:100088000030F5000030F4001430F3000330FF00B6
:100098007F08F00037080A128A1141220A128A11D1
:1000A800013E84000A128A1156220A128A1183120A
:1000B8000313B1000A128A1156220A128A11B200D9
:1000C8003108B3003208B400B501B6013608FA00A9
:1000D8003508F9003408F8003308F7000A128A11C5
:1000E800AF200A128A11760883120313A800750834
:1000F800A7007408A6007308A5003008AC002F08F4
:10010800AB002E08AA002D08A9000A128A1117218F
:100118000A128A11831203132808270426042504C7
:10012800031D972898289F283708513E8400831379
:100138008001800AA4283708513E84008313800177
:100148000130FF007F08B70703303702031CAD28D2
:10015800AE2842280800003083120313A3000030A1
:10016800A2000030A1000030A000760875047404D5
:1001780073040319C028C1280E29A401A40AD12890
:100188000130FB000310F30DF40DF50DF60DFB0B1C
:10019800C6280130FF007F08A407F61FD428D528F9
:1001A800C4280130FB000310A00DA10DA20DA30D62
:1001B800FB0BD72876087A02031DEC28750879020C
:1001C800031DEC2874087802031DEC2873087702D5
:1001D800031CEF28F028FF287308F7027408031C93
:1001E800740FF8027508031C750FF9027608031CD2
:1001F800760FFA02201401300310F60CF50CF40CFB
:10020800F30CFF3E031D00290130A402031D0D2934
:100218000E29D5282308F6002208F5002108F40045
:100228002008F30008008312031328082704260473
:1002380025040319202921296429FD01FD0A3129F2
:100248000130FC000310A50DA60DA70DA80DFC0B91
:1002580026290130FF007F08FD07A81F342935290A
:10026800242928082C02031D432927082B02031DD3
:10027800432926082A02031D432925082902031CAD
:100288004629472955292508A9022608031C260FAF
:10029800AA022708031C270FAB022808031C280FF3
:1002A800AC0201300310A80CA70CA60CA50CFF3E4D
:1002B800031D56290130FD02031D632964293529D0
:1002C8002C08A8002B08A7002A08A6002908A500C2
:1002D80008000B1D702971298129643081000B11D8
:1002E8000A3084000A128A1156220A128A110A1246
:1002F8008A1133200A128A1192298B1C8429852994
:1003080092298B100B3084000A128A1156220A1285
:100318008A110A128A1133200A128A1183120313CE
:100328003B08FF003A088A0039088400380E830029
:10033800FE0E7E0E090083120313BF013F08513ED3
:10034800840083130003031DAA29AB29C1290330A4
:10035800FF007F08BC003F080A128A112A220A12ED
:100368008A11033E84000A128A1156220A128A113F
:100378000A128A1122200A128A110130FF007F080E
:1003880083120313BF0703303F02031CCC29CD2976
:10039800A2299F29080083160313A1002108FF0042
:1003A8007F08A000E4293C08FF00831603132008F7
:1003B80084007F08831380000130FF007F08A007B6
:1003C800013083120313BE020030031CBF03BF02B7
:1003D8003E0A031DF3293F0A031DF329F429D729EF
:1003E8000800013083120313C007003003180130DE
:1003F800C107003003180130C2070030031801306C
:10040800C3074308B0004208AF004108AE004008E7
:10041800AD000A128A113F200A128A1108000A1236
:100428008A1177220A128A110A128A1167220A127D
:100438008A110A128A11A7220A128A110A128A112B
:100448009F210A128A110A128A1112288312031391
:10045800BE00BD013E1C312A322A362A3C08FF0064
:100468007F08BD070310BC0D0310BE0C3E08031D1A
:100478003E2A3F2A2E2A3D080800F200F101721C8C
:10048800462A472A4B2A7008FF007F08F107031005
:10049800F00D0310F20C7208031D532A542A432A44
:1004A8007108080002308A000408840A82070034B0
:1004B800143400340634643400340934F434013418
:1004C800033404340134003083120313BC00BD002C
:1004D8000330BE000030BF0051300A128A11CF210C
:1004E8000A128A110800831603138112811101145C
:1004F800811401150B178B176430831203138100C5
:100508000B11080064008001840A040603190034F2
:100518000406872A0130FF007F0883120313C707E8
:1005280008000130FF007F0883120313C707080083
:100538000130FF007F0883120313C70708008312E6
:0A05480003134A1508008B16080083
:02400E003A3F37
:00000001FF
