:020000040000FA
:060000000A128A11122809
:10000800FE00030E83120313C4000408C5000A0887
:10001800C6007F08C7000A128A115A2C0A128A11D0
:100028001528FD018313203084003D300A128A11FF
:1000380046260A128A1183010A128A11BB2C232828
:10004800FF0000308A007F08820729280A128A11D7
:100058006D2E0A128A11612E0A128A115B2E0A125B
:100068008A113B2E0A128A11E12D0A30F000003065
:10007800F100831203132608F800F9017808F2004A
:100088007908F3000A128A1118210A128A117008D5
:10009800FF007F0883120313AC000A30F000003021
:1000A800F1002608F800F9017808F2007908F30051
:1000B8000A128A119F220A128A117008FF007F080B
:1000C80083120313AB000A30F0000030F10025085A
:1000D800F800F9017808F2007908F3000A128A1189
:1000E80018210A128A117008FF007F08831203136F
:1000F800AA000A30F0000030F1002508F800F901E4
:100108007808F2007908F3000A128A119F220A126D
:100118008A117008FF007F0883120313A900F928C9
:100128002E03031D982899289A280515F730FF00F3
:100138007F088505EF30FF007F088505DF30FF0069
:100148007F0885052C080A128A1142220A128A1190
:100158000F292E03031DB128B228B3288515FB30BB
:10016800FF007F088505EF30FF007F088505DF3039
:10017800FF007F08850588172B080A128A1142227A
:100188000A128A110F292F03031DCB28CC28CD284A
:100198000516FB30FF007F088505F730FF007F0854
:1001A8008505DF30FF007F0885052A080A128A11B5
:1001B80042220A128A110F292F03031DE428E52879
:1001C800E6288516FB30FF007F088505F730FF001D
:1001D8007F088505EF30FF007F08850529080A128A
:1001E8008A1142220A128A110F293008F800F901EF
:1001F8007908003A031901290F297808003A0319E8
:100208009428013A0319AD28033A0319C728013A7B
:100218000319E0280F29831203133008013E03391C
:10022800FF007F08B0000800F501F11F1C291D29F7
:100238002429F009F109F00A0319F10AF501F50A70
:10024800F31F272928293129F209F309F20A03198A
:10025800F30A0130FF007F08F506F601F701700880
:1002680071040319382939297029F401F40A472936
:1002780001300310F00DF10DFF3E031D3D29013043
:10028800FF007F08F407F11F4A294B293C29013058
:100298000310F60DF70DFF3E031D4C29710873027C
:1002A800031D582970087202031C5B295C29632905
:1002B8007008F2027108031CF303F302761401308C
:1002C8000310F10CF00CFF3E031D64290130F40209
:1002D800031D6F2970294B2975080319742975297D
:1002E8007A29F609F709F60A0319F70A7708F100D7
:1002F8007608F000080083120313C3010330FF00DF
:100308007F08F00043080A128A11F7250A128A1199
:10031800013E84000A128A110C260A128A118312DD
:100328000313BD000A128A110C260A128A11BE0094
:100338003D08BF003E08C000C101C2014208F600E6
:100348004108F5004008F4003F08F3002308FA00CC
:100358002208F9002108F8002008F7000A128A117B
:10036800F8220A128A117608750474047304031DAE
:10037800BE29BF29D7290330FF007F08F000831268
:10038800031343080A128A11F7250A128A11033E39
:1003980084000A128A110C260A128A110A128A117A
:1003A80024200A128A110130FF007F0883120313E8
:1003B800C30703304302031CE229E329822908000A
:1003C8008312031306080439FF003108373E8400FE
:1003D8007F088313800006080239FF003108343E85
:1003E80084007F0880000330F0000030F1003108FD
:1003F800013EF200003003180130F3000A128A119E
:100408009F220A128A117008FF007F0883120313C3
:10041800B1003708031D112A122A272A3808031D9C
:10042800162A172A272A3908031D1B2A1C2A272AB5
:100438007D140830FF007F088606B701B70AB801A7
:10044800B80AB901B90A3408031D2B2A2C2A412AF3
:100458003508031D302A312A412A3608031D352A5A
:10046800362A412AFD140830FF007F088606B401A9
:10047800B40AB501B50AB601B60A0800F200762A30
:100488003F308312031388009E2A06308312031319
:1004980088009E2A5B308312031388009E2A4F30FF
:1004A8008312031388009E2A663083120313880080
:1004B8009E2A6D308312031388009E2A7D30831292
:1004C800031388009E2A07308312031388009E2A8C
:1004D8007F308312031388009E2A6F308312031320
:1004E80088009E2A7208F000F1017108003A031989
:1004F8007E2A9E2A7008003A0319442A013A0319F1
:10050800492A033A03194E2A013A0319532A073A8A
:100518000319582A013A03195D2A033A0319622A72
:10052800013A0319672A0F3A03196C2A013A031989
:10053800712A9E2A0800F501F31FA32AA42AAB2AD0
:10054800F209F309F20A0319F30AF501F50AF11F92
:10055800AE2AAF2AB42AF009F109F00A0319F10A00
:10056800700871040319B92ABA2AE92AF401F40AAD
:10057800C82A01300310F00DF10DFF3E031DBE2AFD
:100588000130FF007F08F407F11FCB2ACC2ABD2ACF
:1005980071087302031DD22A70087202031CD52A3F
:1005A800D62ADC2A7008F2027108031CF303F3024E
:1005B80001300310F10CF00CFF3E031DDD2A013061
:1005C800F402031DE82AE92ACC2A75080319ED2A42
:1005D800EE2AF32AF209F309F20A0319F30A730857
:1005E800F1007208F00008007608750474047304BA
:1005F8000319FF2A002B432BFC01FC0A102B0130A6
:10060800FB000310F30DF40DF50DF60DFB0B052B98
:100618000130FF007F08FC07F61F132B142B032B58
:1006280076087A02031D222B75087902031D222BF6
:1006380074087802031D222B73087702031C252BEC
:10064800262B342B7308F7027408031C740FF80266
:100658007508031C750FF9027608031C760FFA0259
:1006680001300310F60CF50CF40CF30CFF3E031DDF
:10067800352B0130FC02031D422B432B142B7A0827
:10068800F6007908F5007808F4007708F300080008
:100698007108831203132806031D542B70082706BC
:1006A800031D572B582B932B02307206031D5D2B0D
:1006B8005E2B742B2F03031D622B632B6D2BAF0155
:1006C800EF30FF007F088505DF30FF007F088505D4
:1006D800742B2F08031D712B722B742BAF01AF0ADB
:1006E8007203031D782B792B8F2B2E03031D7D2B73
:1006F8007E2B882BAE01FB30FF007F088505F73085
:10070800FF007F0885058F2B2E08031D8C2B8D2B52
:100718008F2BAE01AE0A0130A7000030A8000130CF
:10072800A7070318A80A0030A80708000130FF002F
:100738007F0883120313AD072D08F600F70176082A
:10074800F0007708F100E830F2000330F3000A12F5
:100758008A115C250A128A11E830700603300319E1
:100768007106031DB82BB92BBC2B83120313AD01E3
:100778000130FF007F0883120313A4073C302406CE
:10078800031DC72BC82BCD2B0130FF007F08A50701
:10079800A4013C302506031DD22BD32BD82B0130C6
:1007A800FF007F08A607A50118302606031DDD2BCC
:1007B800DE2BDF2BA6010800092C0A128A114E260F
:1007C8000A128A111E2CF430F0000130F100F201F7
:1007D800F20A0A128A114C230A128A11831203138D
:1007E800AF01AF0A1E2CF430F0000130F1000230E6
:1007F800FF007F08F2000A128A114C230A128A119C
:1008080083120313AE01AE0A1E2C8312031333089E
:10081800FA00FB017B08003A0319132C1E2C7A08F6
:10082800003A0319E12B013A0319E72B033A03199C
:10083800F72B1E2C0A128A1139200A128A11080075
:100848007D1C272C282C402CFD182B2C2C2C402CC4
:100858003B30831203132506031D332C342C3A2C0A
:100868000130FF007F08A607A5013E2C0130FF00DC
:100878007F08A5077D10592CFD1C432C442C592CAE
:100888007D18472C482C592C831203132508031D67
:100898004E2C4F2C562C0130A6023B30FF007F080F
:1008A800A500582C0130A502FD1008000B1D5D2C79
:1008B8005E2C6D2C643081000B110A3084000A1202
:1008C8008A110C260A128A110A128A1124200A1285
:1008D8008A118B1C702C712C7E2C8B100B30840091
:1008E8000A128A110C260A128A110A128A11242065
:1008F8000A128A11831203134708FF0046088A0068
:1009080045088400440E8300FE0E7E0E09007D1CFF
:100918008E2C8F2CA32CFD18922C932CA32C1730E3
:10092800831203132606031D9A2C9B2C9D2CA601CB
:10093800A12C0130FF007F08A6077D10BA2CFD1CF2
:10094800A62CA72CBA2C7D18AA2CAB2CBA2C831257
:1009580003132608031DB12CB22CB72C1730FF0047
:100968007F08A600B92C0130A602FD1008000A1263
:100978008A1181250A128A110A128A11C6250A12B9
:100988008A110A128A1155260A128A110A128A1124
:1009980067260A128A110A128A1110250A128A1168
:1009A8000A128A112D260A128A110A128A111D2684
:1009B8000A128A110A128A116B260A128A11E32C6A
:1009C8000A128A111228FA2C0A128A119A230A1278
:1009D8008A110F2D0A128A118B240A128A110F2DDF
:1009E8000A128A1124240A128A110F2D8312031362
:1009F8003308F800F9017908003A0319042D0F2D7E
:100A08007808003A0319E82C013A0319EE2C033A46
:100A18000319F42C0F2D0800013083120313C800AA
:100A28000030C9000330CA000030CB0037300A124A
:100A38008A11A4250A128A11013083120313C800EF
:100A48000030C9000330CA000030CB0034300A122D
:100A58008A11A4250A128A118316031301170B168B
:100A68008B1008007D1D392D3A2D5B2D452DB301C6
:100A7800B30A5A2D0230FF007F08B3005A2DB30184
:100A88005A2D831203133308F000F1017108003A5C
:100A980003194F2D5A2D7008003A03193B2D013ABE
:100AA80003193E2D033A0319432D5A2D7D110800D1
:100AB800F401F501701C612D622D682D7208F40790
:100AC8000318F50A7308F50701300310F20DF30D4A
:100AD800FF3E031D692D01300310F10CF00CFF3EA1
:100AE800031D702D70087104031D7B2D7C2D5E2D58
:100AF8007508F1007408F000080083160313061542
:100B080086140614FB30FF007F088505F730FF00C8
:100B18007F088505EF30FF007F088505DF30FF007F
:100B28007F0885057F30FF007F0888058801EF3042
:100B3800FF007F088605F730FF007F08860508005C
:100B480083120313CD004D08FF007F08CC00B72D9A
:100B58004808FF004C0884007F0883138000013098
:100B6800FF007F08CC070130CA020030031CCB030A
:100B7800CB024A0A031DC42D4B0A031DC42DC52DE3
:100B8800AC2D080083120313AF01AF0AAE01AE0A01
:100B9800FB30FF007F088505F730FF007F088505DB
:100BA800EF30FF007F088505DF30FF007F088505EF
:100BB8007F30FF007F088805080001308312031387
:100BC800A007003003180130A107003003180130D6
:100BD800A207003003180130A3070A128A117F21E7
:100BE8000A128A110800F200F101721CFC2DFD2D79
:100BF800012E7008FF007F08F1070310F00D0310A5
:100C0800F20C7208031D092E0A2EF92D710808002E
:100C180006308A000408840A82070034013400344C
:100C28000734143400340A34E834033404340D34FB
:100C38000134003083120313C800C9000330CA000E
:100C48000030CB003A300A128A11A4250A128A1100
:100C580008008316031381128111011081100115F8
:100C680064308312031381008B170B1708000A12D4
:100C78008A11E4210A128A110A128A1136250A12E7
:100C88008A11080064008001840A040603190034EC
:100C98000406472E83120313AF01AF0AAE01AE0A52
:100CA800080083120313A401A501A60108000A1273
:100CB8008A11E0230A128A1108000A128A11E7240D
:100CC8000A128A11080083120313B30108008B1655
:060CD80008007D15080074
:02400E003A3F37
:00000001FF
