:020000040000FA
:060000000A128A11122809
:10000800FE00030E83120313C0000408C1000A088F
:10001800C2007F08C3000A128A11B72B0A128A117C
:100028001528FB01FC01FD018313203084003730C3
:100038000A128A11D7250A128A1183010A128A1113
:10004800172C2528FF0000308A007F0882072B28FC
:100058000A128A11E92D0A128A11C02D0A128A1170
:10006800B42D0A128A11CC2D0A128A115A2D0A307F
:1000780083120313C4000030C5002608CC00CD014C
:100088004C08C6004D08C7000A128A11A6200A1299
:100098008A11831203134408FF007F08AB000A305B
:1000A800C4000030C5002608CC00CD014C08C600AD
:1000B8004D08C7000A128A11D1210A128A11831227
:1000C80003134408FF007F08AA000A30C400003068
:1000D800C5002508CC00CD014C08C6004D08C70056
:1000E8000A128A11A6200A128A11831203134408DD
:1000F800FF007F08A9000A30C4000030C5002508A9
:10010800CC00CD014C08C6004D08C7000A128A1160
:10011800D1210A128A11831203134408FF007F08B1
:10012800A800FB30FF007F088505F730FF007F0837
:100138008505EF30FF007F088505DF30FF007F0869
:100148008505080083120313C901C51FAC28AD2813
:10015800B428C409C509C40A0319C50AC901C90ACA
:10016800C71FB728B828C128C609C709C60A03196E
:10017800C70A0130FF007F08C906CA01CB0144083D
:1001880045040319C828C9280029C801C80AD7285E
:1001980001300310C40DC50DFF3E031DCD280130ED
:1001A800FF007F08C807C51FDA28DB28CC280130E4
:1001B8000310CA0DCB0DFF3E031DDC28450847027E
:1001C800031DE82844084602031CEB28EC28F32802
:1001D8004408C6024508031CC703C7024A14013075
:1001E8000310C50CC40CFF3E031DF4280130C802DF
:1001F800031DFF280029DB284908031904290529BC
:100208000A29CA09CB09CA0A0319CB0A4B08C5002F
:100218004A08C400080083120313BF010330FF001B
:100228007F08F0003F080A128A1170250A128A1105
:10023800013E84000A128A1185250A128A11831246
:100248000313B9000A128A1185250A128A11BA0005
:100258003908BB003A08BC00BD01BE013E08F600E3
:100268003D08F5003C08F4003B08F3002308FA00B9
:100278002208F9002108F8002008F7000A128A115C
:1002880085220A128A117608750474047304031D02
:100298004E294F2967290330FF007F08F000831299
:1002A80003133F080A128A1170250A128A11033EA5
:1002B80084000A128A1185250A128A110A128A11E3
:1002C80026200A128A110130FF007F0883120313C7
:1002D800BF0703303F02031C722973291229080043
:1002E800F200A8293F30831203138800D029063072
:1002F800831203138800D0295B308312031388000C
:10030800D0294F30831203138800D0296630831216
:1003180003138800D0296D30831203138800D02975
:100328007D30831203138800D0290730831203130A
:100338008800D0297F30831203138800D0296F30BA
:10034800831203138800D0297208F000F1017108A4
:10035800003A0319B029D0297008003A0319762900
:10036800013A03197B29033A03198029013A031931
:100378008529073A03198A29013A03198F29033A6B
:1003880003199429013A031999290F3A03199E2947
:10039800013A0319A329D029080083120313C901BC
:1003A800C71FD729D829DF29C609C709C60A0319CB
:1003B800C70AC901C90AC51FE229E329E829C409EE
:1003C800C509C40A0319C50A440845040319ED29D7
:1003D800EE291D2AC801C80AFC2901300310C40DE2
:1003E800C50DFF3E031DF2290130FF007F08C80735
:1003F800C51FFF29002AF12945084702031D062ABF
:1004080044084602031C092A0A2A102A4408C6027C
:100418004508031CC703C70201300310C50CC40CF0
:10042800FF3E031D112A0130C802031D1C2A1D2A84
:10043800002A49080319212A222A272AC609C70996
:10044800C60A0319C70A4708C5004608C4000800B9
:10045800F501F31F302A312A382AF209F309F20A82
:100468000319F30AF501F50AF11F3B2A3C2A412A30
:10047800F009F109F00A0319F10A70087104031967
:10048800462A472A762AF401F40A552A013003102D
:10049800F00DF10DFF3E031D4B2A0130FF007F08D0
:1004A800F407F11F582A592A4A2A71087302031DB2
:1004B8005F2A70087202031C622A632A692A70087C
:1004C800F2027108031CF303F30201300310F10C6C
:1004D800F00CFF3E031D6A2A0130F402031D752A41
:1004E800762A592A750803197A2A7B2A802AF2095A
:1004F800F309F20A0319F30A7308F1007208F0000D
:100508000800760875047404730403198C2A8D2A6C
:10051800D22A83120313B801B80A9F2A0130B70000
:100528000310F30DF40DF50DF60DB70B942A0130F9
:10053800FF007F08B807F61FA22AA32A922A760886
:100548007A02031DB12A75087902031DB12A7408BD
:100558007802031DB12A73087702031CB42AB52A4E
:10056800C32A7308F7027408031C740FF80275088D
:10057800031C750FF9027608031C760FFA02013086
:100588000310F60CF50CF40CF30CFF3E031DC42A03
:100598000130B802031DD12AD22AA32A7A08F6000C
:1005A8007908F5007808F4007708F300080083124A
:1005B800031306080239FF007B08313E84007F08D8
:1005C8008313800006080139FF007B082E3E840053
:1005D8007F0880000330F0000030F1007B08013E06
:1005E800F200003003180130F3000A128A112C229D
:1005F8000A128A117008FF007F08FB008312031398
:100608003108031D082B092B1A2B3208031D0D2B4B
:100618000E2B1A2B3308031D122B132B1A2B7C14A9
:10062800B101B10AB201B20AB301B30A2E08031D1F
:100638001E2B1F2B302B2F08031D232B242B302B75
:100648003008031D282B292B302BFC14AE01AE0AD1
:10065800AF01AF0AB001B00A08007D08031D352BB1
:10066800362B822B692B0515F730FF007F0885058F
:10067800EF30FF007F088505DF30FF007F08850524
:100688008515FB30FF007F088505EF30FF007F08E8
:100698008505DF30FF007F0885050516FB30FF0064
:1006A8007F088505EF30FF007F088505DF30FF00F4
:1006B8007F08850585160515F730FF007F08850535
:1006C800EF30FF007F088505812B831203132C0868
:1006D800F000F1017108003A0319732B812B70089F
:1006E800003A0319372B013A0319442B033A03192B
:1006F800512B013A03195E2B812BAC0108007C1C9D
:10070800862B872B9E2BFC188A2B8B2B9E2B3B3002
:10071800831203132506031D922B932B992B01306B
:10072800FF007F08A607A501B62B0130FF007F0850
:10073800A507B62BFC1CA12BA22BB62B7C1CA52B2A
:10074800A62BB62B831203132508031DAC2BAD2B48
:10075800B42B0130A6023B30FF007F08A500B62B62
:100768000130A50208000B1DBA2BBB2BCB2B643024
:1007780081000B110A3084000A128A1185250A1299
:100788008A110A128A1126200A128A11DC2B8B1C64
:10079800CE2BCF2BDC2B8B100B3084000A128A1146
:1007A80085250A128A110A128A1126200A128A112C
:1007B800831203134308FF0042088A00410884009B
:1007C800400E8300FE0E7E0E09007C1CEC2BED2BE8
:1007D800002CFC18F02BF12B002C1730831203137C
:1007E8002606031DF82BF92BFB2BA601162C01302E
:1007F800FF007F08A607162CFC1C032C042C162CC3
:100808007C1C072C082C162C831203132608031DA6
:100818000E2C0F2C142C1730FF007F08A600162C66
:100828000130A60208000A128A111E250A128A112E
:100838000A128A113B200A128A110A128A11DF252C
:100848000A128A110A128A11E7250A128A110A1253
:100858008A11D9240A128A110A128A11A6250A12A3
:100868008A110A128A1196250A128A110A128A1105
:10087800E5250A128A113F2C0A128A111228562CD1
:100888000A128A1191240A128A11692C0A128A11F1
:10089800E9230A128A11692C0A128A1183230A127F
:1008A8008A11692C7D08F000F1017108003A0319DA
:1008B8005E2C692C7008003A0319442C013A03197C
:1008C8004A2C033A0319502C692C08007D2C0A1273
:1008D8008A113C250A128A11902C0A128A11EC25D9
:1008E8000A128A11902C0A128A11EB250A128A110F
:1008F800902C7D08F300F4017408003A0319852C44
:10090800902C7308003A03196B2C013A0319712CC7
:10091800033A0319772C902C08000130FF007F0858
:1009280083120313A4073C302406031D9C2C9D2C22
:10093800A22C0130FF007F08A507A4013C30250642
:10094800031DA72CA82CAD2C0130FF007F08A6079B
:10095800A50118302606031DB22CB32CB42CA60111
:1009680008007C1DB82CB92CD82CC42CFD01FD0A1C
:10097800D72C0230FF007F08FD00D72CFD01D72CB3
:100988007D08F000F1017108003A0319CC2CD72C2E
:100998007008003A0319BA2C013A0319BD2C033A1E
:1009A8000319C22CD72C7C110800013083120313C1
:1009B800C4000030C5000330C6000030C700313025
:1009C8000A128A11FC240A128A11013083120313B5
:1009D800C4000030C5000330C6000030C7002E3008
:1009E8000A128A11FC240A128A118B100B160800AD
:1009F80083120313C9004908FF007F08C8000F2DA0
:100A08004408FF00480884007F08831380000130F1
:100A1800FF007F08C8070130C6020030031CC70367
:100A2800C702460A031D1C2D470A031D1C2D1D2D38
:100A3800042D08008316031386140614FB30FF00E8
:100A48007F088505F730FF007F088505EF30FF0038
:100A58007F088505DF30FF007F0885058801EF30B6
:100A6800FF007F088605F730FF007F08860508002D
:100A78000130FF007F0883120313AD062D08031D04
:100A8800462D472D4E2D25080A128A1174210A1267
:100A98008A11542D26080A128A1174210A128A1101
:100AA8000A128A1131230A128A11080001308312AE
:100AB8000313A007003003180130A1070030031802
:100AC8000130A207003003180130A3070A128A1167
:100AD8000F210A128A110800F200F101721C752D0B
:100AE800762D7A2D7008FF007F08F1070310F00DAE
:100AF8000310F20C7208031D822D832D722D7108CC
:100B0800080005308A000408840A82070034053486
:100B180000340734643400340A34F43401340434BF
:100B28000D340134003083120313C400C5000330B0
:100B3800C6000030C70034300A128A11FC240A1299
:100B48008A11080083160313811281110110811084
:100B5800011564308312031381008B170B170800EB
:100B68000A128A116A240A128A111030FF007F08BB
:100B780083120313860608000830FF007F088312DB
:100B8800031386060A128A1143240A128A110800DE
:100B98000A128A11DB220A128A110A128A11B52452
:100BA8000A128A11080064008001840A04060319E5
:100BB80000340406D82D83120313A401A501A6014D
:100BC80008008B160800FD0108007C1508000800C5
:020BD800080013
:02400E003A3F37
:00000001FF
