:020000040000FA
:060000000A128A11122809
:10000800FE00030E83120313B8000408B9000A089F
:10001800BA007F08BB000A128A119D2B0A128A11A6
:10002800152883133C30840055300A128A11CF25D5
:100038000A128A1183010A128A115A2CFF00003011
:100048008A007F0882072728282829280A128A1167
:10005800E32D0A128A11DD2D0A128A11D72DFF000D
:1000680000308A007F08820738280A128A11F32D87
:100078000A128A113F2D0A3083160313A00000309C
:10008800A10083120313420883160313A800A901D1
:100098002808A2002908A3000A128A1128210A1296
:1000A8008A11831603132008FF007F0883120313A5
:1000B800C6000A3083160313A0000030A100831283
:1000C8000313420883160313A800A9012808A200F5
:1000D8002908A3000A128A11BA220A128A11831661
:1000E80003132008FF007F0883120313C5000A309A
:1000F80083160313A0000030A100831203134108E4
:1001080083160313A800A9012808A2002908A30040
:100118000A128A1128210A128A1183160313200849
:10012800FF007F0883120313C4000A3083160313E9
:10013800A0000030A10083120313410883160313A3
:10014800A800A9012808A2002908A3000A128A11F8
:10015800BA220A128A11831603132008FF007F08A7
:1001680083120313C300080083120313B70100307E
:10017800F6000030F5000030F4001430F3000330CE
:10018800FF007F08F00037080A128A118A250A1230
:100198008A11013E84000A128A119F250A128A11C7
:1001A80083120313B1000A128A119F250A128A11B9
:1001B800B2003108B3003208B400B501B601360800
:1001C800FA003508F9003408F8003308F7000A1275
:1001D8008A1191210A128A11760883120313A80042
:1001E8007508A7007408A6007308A5003008AC00BD
:1001F8002F08AB002E08AA002D08A9000A128A11A0
:1002080015230A128A1183120313280827042604C7
:100218002504031D1029112918293708523E840086
:1002280083138001800A1D293708523E84008313F6
:1002380080010130FF007F08B70703303702031C35
:1002480026292729BB28080083160313A501A11F07
:100258002E292F293629A009A109A00A0319A10AC4
:10026800A501A50AA31F39293A294329A209A309E7
:10027800A20A0319A30A0130FF007F08A506A601F8
:10028800A7012008210403194A294B298229A4011E
:10029800A40A592901300310A00DA10DFF3E031D2A
:1002A8004F290130FF007F08A407A11F5C295D29A1
:1002B8004E2901300310A60DA70DFF3E031D5E2930
:1002C80021082302031D6A2920082202031C6D2924
:1002D8006E2975292008A2022108031CA303A30282
:1002E800261401300310A10CA00CFF3E031D762933
:1002F8000130A402031D812982295D2925080319DB
:10030800862987298C29A609A709A60A0319A70AF5
:100318002708A1002608A000080000308312031354
:10032800A3000030A2000030A1000030A000760831
:100338007504740473040319A229A329F029A401DC
:10034800A40AB3290130FB000310F30DF40DF50DD9
:10035800F60DFB0BA8290130FF007F08A407F61F44
:10036800B629B729A6290130FB000310A00DA10D5D
:10037800A20DA30DFB0BB92976087A02031DCE291D
:1003880075087902031DCE2974087802031DCE2949
:1003980073087702031CD129D229E1297308F702CF
:1003A8007408031C740FF8027508031C750FF90212
:1003B8007608031C760FFA02201401300310F60C9D
:1003C800F50CF40CF30CFF3E031DE2290130A402E6
:1003D800031DEF29F029B7292308F6002208F500A4
:1003E8002108F4002008F3000800831203134A08C8
:1003F800031DFF29002A5A2A3B2A831203130515D5
:10040800F730FF007F088505EF30FF007F0885057E
:10041800DF30FF007F08850583128515FB30FF005C
:100428007F088505EF30FF007F088505DF30FF0076
:100438007F08850583120516FB30FF007F088505B8
:10044800EF30FF007F088505DF30FF007F08850556
:1004580083128516FB30FF007F088505F730FF0003
:100468007F088505EF30FF007F088505532A470878
:1004780083160313A000A1012108003A0319452A95
:10048800532A2008003A0319012A013A0319102AAD
:10049800033A03191E2A013A03192C2A532A8312F4
:1004A8004708013E0339FF007F08C700080083168C
:1004B8000313A200912A3F30831203138800B92A3C
:1004C8000630831203138800B92A5B3083120313A2
:1004D8008800B92A4F30831203138800B92A66307E
:1004E800831203138800B92A6D308312031388001E
:1004F800B92A7D30831203138800B92A0730831282
:1005080003138800B92A7F30831203138800B92A9D
:100518006F30831203138800B92A2208A000A101B2
:100528002108003A0319992AB92A2008003A031920
:100538005F2A013A0319642A033A0319692A013A1E
:1005480003196E2A073A0319732A013A0319782AFC
:10055800033A03197D2A013A0319822A0F3A03192B
:10056800872A013A03198C2AB92A0800831603132B
:10057800A501A31FC02AC12AC82AA209A309A20A41
:100588000319A30AA501A50AA11FCB2ACC2AD12A9F
:10059800A009A109A00A0319A10A20082104031926
:1005A800D62AD72A062BA401A40AE52A013003106B
:1005B800A00DA10DFF3E031DDB2A0130FF007F08BF
:1005C800A407A11FE82AE92ADA2A21082302031D21
:1005D800EF2A20082202031CF22AF32AF92A20080B
:1005E800A2022108031CA303A30201300310A10CDB
:1005F800A00CFF3E031DFA2A0130A402031D052B9F
:10060800062BE92A250803190A2B0B2B102BA20904
:10061800A309A20A0319A30A2308A1002208A0001B
:100628000800831203132808270426042504031945
:100638001E2B1F2B622BFD01FD0A2F2B0130FC0006
:100648000310A50DA60DA70DA80DFC0B242B01303A
:10065800FF007F08FD07A81F322B332B222B280809
:100668002C02031D412B27082B02031D412B2608B2
:100678002A02031D412B25082902031C442B452B64
:10068800532B2508A9022608031C260FAA022708AF
:10069800031C270FAB022808031C280FAC020130EB
:1006A8000310A80CA70CA60CA50CFF3E031D542B89
:1006B8000130FD02031D612B622B332B2C08A8008F
:1006C8002B08A7002A08A6002908A50008008312FD
:1006D8000313491C702B712B862BC918742B752B8F
:1006E800862B3B304106031D7A2B7B2B812B013057
:1006F800FF007F08C207C1019C2B0130FF007F0863
:10070800C1079C2BC91C892B8A2B9C2B491C8D2B20
:100718008E2B9C2B4108031D922B932B9A2B013077
:10072800C2023B30FF007F08C1009C2B0130C10290
:1007380008000B1DA02BA12BB12B643081000B11DD
:100748000A3084000A128A119F250A128A110A1295
:100758008A1133200A128A11C22B8B1CB42BB52B99
:10076800C22B8B100B3084000A128A119F250A12A3
:100778008A110A128A1133200A128A11831203136A
:100788003B08FF003A088A0039088400380E8300C5
:10079800FE0E7E0E090083160313A5012508523E9E
:1007A800840083130003031DDA2BDB2BF12B0330AA
:1007B800FF007F08A00025080A128A115D250A1289
:1007C8008A11033E84000A128A119F250A128A118F
:1007D8000A128A1122200A128A110130FF007F08AA
:1007E80083160313A50703302502031CFC2BFD2BDE
:1007F800D22BCF2B080083120313491D042C052C80
:100808002D2C162C83120313CA01CA0A2B2C023072
:10081800FF007F0883120313CA002B2C83120313D3
:10082800CA012B2C4A0883160313A000A101210832
:10083800003A0319202C2B2C2008003A0319062C07
:10084800013A03190B2C033A0319122C2B2C83128F
:100858004911080083120313491C332C342C452CEE
:10086800C918372C382C452C17304206031D3D2C4F
:100878003E2C402CC201592C0130FF007F08C207D2
:10088800592CC91C482C492C592C491C4C2C4D2C32
:10089800592C4208031D512C522C572C1730FF009D
:1008A8007F08C200592C0130C20208000A128A11BE
:1008B80074250A128A110A128A113F200A128A1113
:1008C8000A128A11E9250A128A110A128A11EF25D9
:1008D8000A128A110A128A11C0250A128A110A12EA
:1008E8008A11B0250A128A110A128A11F7250A12EA
:1008F8008A110A128A11CF230A128A110A128A113E
:100908001228982C0A128A11DB240A128A11AF2C99
:100918000A128A112E240A128A11AF2C0A128A117D
:100928006B230A128A11AF2C831203134A08831609
:100938000313A000A1012108003A0319A42CAF2C2D
:100948002008003A0319862C013A03198C2C033A23
:100958000319922CAF2C0800C32C0A128A112125E6
:100968000A128A11DA2C0A128A11FA250A128A1135
:10097800DA2C0A128A11F9250A128A11DA2C831242
:1009880003134A0883160313A300A4012408003A9A
:100998000319CF2CDA2C2308003A0319B12C013A99
:1009A8000319B72C033A0319BD2CDA2C08000130BF
:1009B800FF007F0883120313C0073C304006031D65
:1009C800E62CE72CEC2C0130FF007F08C107C001A2
:1009D8003C304106031DF12CF22CF72C0130FF00AE
:1009E8007F08C207C10118304206031DFC2CFD2CEC
:1009F800FE2CC201080083160313A5002508FF007A
:100A08007F08A400122D2008FF00240884007F0816
:100A1800831380000130FF007F08A4070130A20281
:100A28000030031CA303A302220A031D1F2D230A5F
:100A3800031D1F2D202D072D08000130FF007F0802
:100A480083120313CB064B08031D2B2D2C2D332D9E
:100A580041080A128A115B220A128A11392D4208AA
:100A68000A128A115B220A128A110A128A11F921C2
:100A78000A128A110800013083120313BC070030E0
:100A880003180130BD07003003180130BE070030DD
:100A980003180130BF073F08B0003E08AF003D080B
:100AA800AE003C08AD000A128A11B8200A128A1159
:100AB800080083160313A200A101221C642D652DD2
:100AC800692D2008FF007F08A1070310A00D03105F
:100AD800A20C2208031D712D722D612D210808001A
:100AE8008316031386140614FB30FF007F08850560
:100AF800F730FF007F088505EF30FF007F08850588
:100B0800DF30FF007F08850588010800F200F10149
:100B1800721C8F2D902D942D7008FF007F08F1070F
:100B28000310F00D0310F20C7208031D9C2D9D2D6F
:100B38008C2D7108080005308A000408840A820791
:100B48000034143400340634643400340934E8348E
:100B58000334033404340134003083160313A00033
:100B6800A1000330A2000030A30052300A128A11FB
:100B7800FF240A128A1108008316031381128111B7
:100B88000114811401150B178B176430831203139A
:100B980081000B11080064008001840A040603190F
:100BA80000340406D02D0A128A11FF230A128A1172
:100BB80008000A128A11B0240A128A1108000A12BF
:100BC8008A1185240A128A11080083120313C001AE
:100BD800C101C201080083120313CA01080083126D
:0E0BE8000313491508008B16080008000800CA
:02400E003A3F37
:00000001FF
