:020000040000FA
:060000000A128A11122809
:10000800FE00030E83120313C4000408C5000A0887
:10001800C6007F08C7000A128A117D2C0A128A11AD
:100028001528FB01FC01FD018313203084003B30BF
:100038000A128A1146260A128A1183010A128A11A3
:10004800DE2C2528FF0000308A007F0882072B2835
:100058000A128A116B2E0A128A115A2E0A128A1152
:10006800542E0A128A11172E0A128A11DB2DA12882
:100078007B03031D4028412842280515F730FF005F
:100088007F088505EF30FF007F088505DF30FF001A
:100098007F0885052D080A128A1111220A128A1171
:1000A800B9287B03031D59285A285B288515FB307E
:1000B800FF007F088505EF30FF007F088505DF30EA
:1000C800FF007F08850588172C080A128A1111225B
:1000D8000A128A11B9287C03031D7328742875280D
:1000E8000516FB30FF007F088505F730FF007F0805
:1000F8008505DF30FF007F0885052B080A128A1165
:1001080011220A128A11B9287C03031D8C288D2814
:100118008E288516FB30FF007F088505F730FF0025
:100128007F088505EF30FF007F0885052A080A1239
:100138008A1111220A128A11B928831203132E0870
:10014800F300F4017408003A0319AB28B9287308BE
:10015800003A03193C28013A03195528033A0319B0
:100168006F28013A03198828B928831203132E0827
:10017800013E0339FF007F08AE000800D5280A12A7
:100188008A11C1230A128A11EA280A128A11AE2496
:100198000A128A11EA280A128A1147240A128A11B5
:1001A800EA28831203133108F800F9017908003AA4
:1001B8000319DF28EA287808003A0319C328013A06
:1001C8000319C928033A0319CF28EA280A30F0008E
:1001D8000030F100831203132508F800F9017808AC
:1001E800F2007908F3000A128A1145210A128A11CD
:1001F8007008FF007F0883120313AD000A30F00077
:100208000030F1002508F800F9017808F2007908B3
:10021800F3000A128A116E220A128A117008FF006E
:100228007F0883120313AC000A30F0000030F1009D
:100238002408F800F9017808F2007908F3000A1296
:100248008A1145210A128A117008FF007F0883125B
:100258000313AB000A30F0000030F1002408F80066
:10026800F9017808F2007908F3000A128A116E225F
:100278000A128A117008FF007F0883120313AA006C
:100288000800F501F11F49294A295129F009F10906
:10029800F00A0319F10AF501F50AF31F5429552943
:1002A8005E29F209F309F20A0319F30A0130FF0083
:1002B8007F08F506F601F70170087104031965292E
:1002C80066299D29F401F40A742901300310F00D00
:1002D800F10DFF3E031D6A290130FF007F08F40776
:1002E800F11F77297829692901300310F60DF70DD8
:1002F800FF3E031D792971087302031D85297008C3
:100308007202031C8829892990297008F202710851
:10031800031CF303F302761401300310F10CF00C04
:10032800FF3E031D91290130F402031D9C299D29DC
:10033800782975080319A129A229A729F609F70917
:10034800F60A0319F70A7708F1007608F0000800A2
:1003580083120313C3010330FF007F08F000430832
:100368000A128A11F1250A128A11013E84000A1222
:100378008A1106260A128A1183120313BD000A1273
:100388008A1106260A128A11BE003D08BF003E08DF
:10039800C000C101C2014208F6004108F50040084A
:1003A800F4003F08F3002308FA002208F9002108A6
:1003B800F8002008F7000A128A11C7220A128A11C7
:1003C8007608750474047304031DEB29EC29042AC8
:1003D8000330FF007F08F0008312031343080A125A
:1003E8008A11F1250A128A11033E84000A128A1121
:1003F80006260A128A110A128A1126200A128A115E
:100408000130FF007F0883120313C3070330430240
:10041800031C0F2A102AAF290800F200452A3F3092
:100428008312031388006D2A063083120313880091
:100438006D2A5B308312031388006D2A4F308312B4
:10044800031388006D2A66308312031388006D2A0F
:100458006D308312031388006D2A7D3083120313D5
:1004680088006D2A07308312031388006D2A7F30B5
:100478008312031388006D2A6F30831203138800D8
:100488006D2A7208F000F1017108003A03194D2A2B
:100498006D2A7008003A0319132A013A0319182A19
:1004A800033A03191D2A013A0319222A073A0319A4
:1004B800272A013A03192C2A033A0319312A013A47
:1004C8000319362A0F3A03193B2A013A0319402A1D
:1004D8006D2A0800F501F31F722A732A7A2AF20995
:1004E800F309F20A0319F30AF501F50AF11F7D2A47
:1004F8007E2A832AF009F109F00A0319F10A700823
:1005080071040319882A892AB82AF401F40A972A57
:1005180001300310F00DF10DFF3E031D8D2A01304F
:10052800FF007F08F407F11F9A2A9B2A8C2A71087A
:100538007302031DA12A70087202031CA42AA52AAB
:10054800AB2A7008F2027108031CF303F3020130AE
:100558000310F10CF00CFF3E031DAC2A0130F4022D
:10056800031DB72AB82A9B2A75080319BC2ABD2A75
:10057800C22AF209F309F20A0319F30A7308F1000F
:100588007208F000080076087504740473040319EF
:10059800CE2ACF2A142B83120313BC01BC0AE12AEA
:1005A8000130BB000310F30DF40DF50DF60DBB0B78
:1005B800D62A0130FF007F08BC07F61FE42AE52A87
:1005C800D42A76087A02031DF32A75087902031DD6
:1005D800F32A74087802031DF32A73087702031CB0
:1005E800F62AF72A052B7308F7027408031C740F00
:1005F800F8027508031C750FF9027608031C760FBC
:10060800FA0201300310F60CF50CF40CF30CFF3E63
:10061800031D062B0130BC02031D132B142BE52AE6
:100628007A08F6007908F5007808F4007708F300EE
:1006380008008312031306080439FF002F08353E0B
:1006480084007F088313800006080239FF002F0802
:10065800323E84007F0880000330F0000030F10053
:100668002F08013EF200003003180130F3000A128F
:100678008A116E220A128A117008FF007F088312FD
:100688000313AF003508031D4A2B4B2B5C2B360890
:10069800031D4F2B502B5C2B3708031D542B552B58
:1006A8005C2B7D14B501B50AB601B60AB701B70AC5
:1006B8003208031D602B612B722B3308031D652B39
:1006C800662B722B3408031D6A2B6B2B722BFD14BF
:1006D800B201B20AB301B30AB401B40A080071083E
:1006E800831203132806031D7B2B70082706031D9E
:1006F8007E2B7F2BBA2B02307206031D842B852B91
:100708009B2B7C03031D892B8A2B942BFC01EF3038
:10071800FF007F088505DF30FF007F0885059B2BDC
:100728007C08031D982B992B9B2BFC01FC0A720358
:10073800031D9F2BA02BB62B7B03031DA42BA52BDE
:10074800AF2BFB01FB30FF007F088505F730FF006A
:100758007F088505B62B7B08031DB32BB42BB62B5E
:10076800FB01FB0A0130A7000030A8000130A707F1
:100778000318A80A0030A80708000130FF007F0806
:1007880083120313A9072908F600F7017608F00079
:100798007708F1006430F2000030F3000A128A1181
:1007A80056250A128A11E8307006033003197106BB
:1007B800031DDF2BE02BE72B0130FF007F0883129E
:1007C8000313A407A9013C30831203132406031D55
:1007D800EE2BEF2BF42B0130FF007F08A507A401B7
:1007E8003C302506031DF92BFA2BFF2B0130FF00A7
:1007F8007F08A607A50118302606031D042C052C22
:10080800062CA60108002C2C0A128A1160260A124E
:100818008A11412CF430F0000130F100F201F20AA3
:100828000A128A1173230A128A11FC01FC0A412C4C
:10083800F430F0000130F1000230FF007F08F200D0
:100848000A128A1173230A128A11FB01FB0A412C2E
:10085800831203133108F500F6017608003A0319EC
:10086800362C412C7508003A0319082C013A031953
:100878000E2C033A03191C2C412C0A128A113B2016
:100888000A128A1108007D1C4A2C4B2C632CFD1877
:100898004E2C4F2C632C3B30831203132506031D6B
:1008A800562C572C5D2C0130FF007F08A607A501A8
:1008B800612C0130FF007F08A5077D107C2CFD1CF2
:1008C800662C672C7C2C7D186A2C6B2C7C2C831254
:1008D80003132508031D712C722C792C0130A602F4
:1008E8003B30FF007F08A5007B2C0130A502FD10DE
:1008F80008000B1D802C812C902C653081000B1179
:100908000A3084000A128A1106260A128A110A126B
:100918008A1126200A128A118B1C932C942CA12C44
:100928008B100B3084000A128A1106260A128A11CB
:100938000A128A1126200A128A1183120313470801
:10094800FF0046088A0045088400440E8300FE0E16
:100958007E0E09007D1CB12CB22CC62CFD18B52CBE
:10096800B62CC62C1730831203132606031DBD2C84
:10097800BE2CC02CA601C42C0130FF007F08A6079E
:100988007D10DD2CFD1CC92CCA2CDD2C7D18CD2C2E
:10099800CE2CDD2C831203132608031DD42CD52C52
:1009A800DA2C1730FF007F08A600DC2C0130A602E5
:1009B800FD1008000A128A117B250A128A110A12F0
:1009C8008A11C0250A128A110A128A114E260A12A1
:1009D8008A110A128A1165260A128A110A128A11C4
:1009E8000A250A128A110A128A1138260A128A114D
:1009F8000A128A1128260A128A110A128A116926ED
:100A08000A128A11062D0A128A111228013083123D
:100A18000313C8000030C9000330CA000030CB00FF
:100A280035300A128A119E250A128A110130831262
:100A38000313C8000030C9000330CA000030CB00DF
:100A480032300A128A119E250A128A11831603135C
:100A580001170B168B1008007D1D332D342D552DD5
:100A68003F2DB101B10A542D0230FF007F08B100BB
:100A7800542DB101542D831203133108F000F101F4
:100A88007108003A0319492D542D7008003A0319CA
:100A9800352D013A0319382D033A03193D2D542DEC
:100AA8007D110800F401F501701C5B2D5C2D622D91
:100AB8007208F4070318F50A7308F50701300310E4
:100AC800F20DF30DFF3E031D632D01300310F10CF1
:100AD800F00CFF3E031D6A2D70087104031D752D6F
:100AE800762D582D7508F1007408F000080083165B
:100AF8000313061586140614FB30FF007F088505CE
:100B0800F730FF007F088505EF30FF007F08850577
:100B1800DF30FF007F0885057F30FF007F088805EC
:100B28008801EF30FF007F088605F730FF007F0857
:100B38008605080083120313CD004D08FF007F08C7
:100B4800CC00B12D4808FF004C0884007F088313AF
:100B580080000130FF007F08CC070130CA02003056
:100B6800031CCB03CB024A0A031DBE2D4B0A031DEF
:100B7800BE2DBF2DA62D0800FC01FC0AFB01FB0AB7
:100B8800FB30FF007F08831203138505F730FF0051
:100B98007F088505EF30FF007F088505DF30FF00FF
:100BA8007F0885057F30FF007F0888050800013031
:100BB80083120313A007003003180130A107003087
:100BC80003180130A207003003180130A3070A12E6
:100BD8008A11AC210A128A110800F200F101721C74
:100BE800F62DF72DFB2D7008FF007F08F107031085
:100BF800F00D0310F20C7208031D032E042EF32DC2
:100C08007108080006308A000408840A8207003444
:100C1800013400340734143400340A3464340034A2
:100C280004340D3401340830FF007F0883120313A5
:100C380086060A128A111D230A128A110A128A11BB
:100C480030250A128A110800003083120313C800E5
:100C5800C9000330CA000030CB0038300A128A11AC
:100C68009E250A128A110800831603138112811126
:100C780001108110011564308312031381008B1752
:100C88000B17080064008001840A04060319003465
:100C98000406472E83120313A401A501A601080028
:100CA8000A128A1107240A128A1108000A128A11E4
:100CB800C2200A128A110800FC01FC0AFB01FB0A87
:100CC800080083120313B10108008B1608007D1574
:020CD800080012
:02400E003A3F37
:00000001FF
